:020000040800F2
:1000000000000220E9DE00085D4000085F400008B3
:1000100061400008634000086540000800000000DF
:1000200000000000000000000000000051DA00089D
:100030006740000800000000F1DA000855DB000806
:1000400039DF000839DF000839DF000839DF000830
:1000500039DF000839DF000839DF000839DF000820
:1000600039DF000839DF000839DF0008D94000080F
:100070006940000839DF000879400008894000081D
:100080009940000839DF000839DF0008000000004F
:1000900000000000000000000000000039DF000840
:1000A00039DF000839DF00081941000839DF00088E
:1000B00039DF000839DF000839DF0008E9400008AF
:1000C000F940000839DF000839DF000839DF00088F
:1000D00039DF0008A940000839DF000800000000EF
:1000E00039DF000839DF000839DF000800000000B0
:1000F00000000000000000000000000009410008AE
:100100000000000039DF000839DF000839DF00088F
:1001100000000000000000000000000000000000DF
:1001200039DF000839DF000839DF000839DF00084F
:1001300039DF00080000000000000000000000009F
:1001400000000000000000000000000039DF00088F
:10015000B940000839DF0008C940000839DF00084D
:1001600039DF000839DF000800000000000000004F
:10017000000000000000000000000000000000007F
:100180000000000039DF000800000000000000004F
:0801900039DF000839DF000827
:1001A00001F0FF01102A2BDB10F0070F08D010F828
:1001B000013B013A8B422DD010F0070F42B3F6D12C
:1001C000F0B441EA012141EA014122F007047FF045
:1001D00000070023F0E80256083C85EA010586EA9C
:1001E000010685FA47F5A3FA87F586FA47F6A5FAD8
:1001F00087F68EB9EED1F0BC01F0FF0102F00702E4
:1002000032B110F8013B013A83EA010313B1F8D18E
:100210000020704701387047002D06BF354603386F
:10022000073815F0010F07D1013015F4807F02BFA8
:10023000013015F4C03F0130F0BC0138704700BFF9
:100240002DE9F04F002189B080460020CDE906015C
:1002500003239C46CDF80480019B93E8C000D3E9BA
:1002600006ABA6FB0601044606FB07F3BAEB040245
:1002700001EB4303A04699466BEB0303941843EB51
:100280000305A21845EB030318EB020449EB030531
:1002900006FB05F107FB0411A6FB0423AAFB0A4594
:1002A0000AFB0BF0AB46A2460B440BEB4001CDE939
:1002B00002AB03910199D1E90C0118EB080449EB59
:1002C0000905801A61EB03018946DDE902AB06FBF3
:1002D00005F14B468046980007FB0413A6FB044536
:1002E000DAF1000A1D44DDE902236BEB4B0B4FEA08
:1002F000880E4FEA8B01CDF810E04FEA8A0E12EB20
:100300000E0240EA987041EA9A714B41059006FB53
:1003100005F107FB041192469B46A6FB0423DDE989
:100320000445019899462B4606FB03F307FB043767
:100330009046A6FB0423D0E9124514EB0A0445EBD2
:100340000B05A2464846084418EB0A04AB463B445A
:1003500040EB0B05101943EB0501002871F1000378
:10036000019B03F1080301932FDBDDE906238242A1
:100370008B4101DACDE90601BCF1010C7FF46CAFD1
:10038000DDE9060103F0F4FA124B07EE100AD3ED93
:100390000E7AC7EE277A17EE900A0FF079FD0E4B12
:1003A000D3F80C329B00C3F1200201FA02F2B3F140
:1003B000200420FA03F040EA02005CBF41FA04F492
:1003C0002043194109B0BDE8F08F404261EB410183
:1003D000CBE700BFD000002010530020C1070AD592
:1003E000184B4FF040414FF080429966D96619672B
:1003F0005A679A67DA67820710D5124B4FF040416F
:100400004FF08042C3F80011C3F80411C3F808117B
:10041000C3F80C21C3F81021C3F81421430710D5E9
:10042000084B4FF040414FF08042C3F89811C3F899
:100430009C11C3F8A011C3F8A421C3F8A821C3F8E4
:10044000AC2170471053002038B5094D982422463E
:10045000284600210DF0CEFE05F5987022460021B9
:100460000DF0C8FE0520BDE83840FFF7B7BF00BF5C
:100470001853002010B50D4C00214FF4187220467F
:100480000DF0B8FE0720FFF7A9FF0123184603214E
:100490000022C4F8E43184F8E8310BF0DBF90448B9
:1004A00064210722BDE810400BF068B8105300200B
:1004B000790B0008836F03B1C2E60020002170476A
:1004C0002DE9F84F836F002B5DD0A0F1080100F1FA
:1004D000100E0026002751F8080FD1F804C0D1E90A
:1004E000062300FB0CF8A0FB004505EB4805121B9A
:1004F00063EB050312EB020843EB030912EB08025E
:1005000043EB0903D1E90CAB12196B4102FB0CFC64
:1005100000FB03CCA2FB0023B2EB0A02634463EBB3
:100520000B03002A73F1000031DB964277EB0300E6
:10053000BCBF16461F467145CDD13946304603F043
:1005400017FA154B07EE100AD3ED0E7AC7EE277A8D
:1005500017EE900A0FF09CFC104BD3F80C3203EB13
:100560004303C3F1200201FA02F2B3F1200420FA9E
:1005700003F058BF41FA04F440EA020058BF204398
:100580001941BDE8F88F18461946BDE8F88F524268
:1005900063EB4303C9E700BFD000002010530020E5
:1005A0002DE9F0412F4B84B0D3F8107280461C46E1
:1005B0001A4603F1800003F1180601A952F8083F1A
:1005C00050F8045FBB4003EB0543B24241F8043BE3
:1005D000F4D19822002124480DF00CFE0120FFF7F1
:1005E000FDFE94F8E8311F4A042B32D01F4D019BC9
:1005F000686AAF6AEE6A039AD8F82410181A029B48
:10060000DF1B002887EAE773A3EBE773B8BF40421C
:100610008342A2EB0602B8BF034682EAE270A0EB77
:10062000E2709842B8BF18460BF057F9D4F8183268
:10063000984206DA01A803210AF0CCFE02200BF052
:10064000E9FC01A90EC96962AA62EB6204B0BDE8C7
:10065000F081D2F81832B3F5201FC4BF052382F809
:10066000E831C3E71053002018530020D0000020C9
:10067000014BC3E902017047D0000020014BC3E9E0
:1006800006017047D0000020014BC3E90401704708
:10069000D0000020064B30B403F5E872D2E90045E3
:1006A000D3F8E0310360C1E9004530BC704700BFBA
:1006B00010530020064B30B403F5EC72D2E900452C
:1006C000D3F8E0310360C1E9004530BC704700BF9A
:1006D000105300202DE9F04F83B001F11803D1F839
:1006E00078B001930D4601F1680C01F15C0ABBF191
:1006F000000F37D0B0F90020DCF81430D31A1E46B2
:10070000DF175AF8042F9A42B8BFCAF800305CF8D5
:10071000042F9A42C8BFCCF8003005F1600E2C4679
:100720000122002302FB07F806FB0388A2FB062335
:100730004344D4E9008918EB020849EB0309E4E8D3
:1007400006897445EED1019B08359D4200F10200F7
:10075000CDD10BF1010301228B67C1F8902003B0CA
:10076000BDE8F08FB0F90030CCF814300026002737
:100770005B46C6E70368D36643681367F0B4946FBB
:1007800083685367C2F8881094B1043802F15C01A1
:1007900002F1680750F8043F0E6A51F8045F9B1B92
:1007A000002BB8BF5B42AB42C8BF0B60B942F1D16E
:1007B000013401239467C2F89030F0BC704700BF49
:1007C00030B40023C56E046F416FD0F88820C56730
:1007D000C0F88040C0F88410C0F88C2003664366DF
:1007E00083668367C0F8903030BC7047D0F88820AB
:1007F000D0F88C00101A7047016E436E826E9942D9
:10080000B8BF194691420846B8BF1046704700BFAE
:10081000F0B50346C2F120048E46B2F120070EFA6D
:1008200004FC23FA02F002F1FF354FF0010658BF35
:100830004EFA07F706FA05F64CEA0000A4F1200587
:1008400058BF384303FA05F5C4F1200723FA07F728
:100850004CEA05053D43A340C4F12007E34005FAF7
:1008600007F7203C43EA07035CBF45FA04F423433F
:100870009E424EFA02F107DB7642B34203DA10F1F0
:10088000FF3041F1FF31F0BD013041F10001F0BD19
:100890000B4A1146002341F8043B0431536041F8F0
:1008A000043B13620B6053629362D3621361536122
:1008B0009361D361136353639363D363704700BF42
:1008C000305500200B4AD2F84832F0B404460D46A9
:1008D0006BB11146F1E99067864277EB050001DACA
:1008E000C1E900450133C2F84832F0BC704702F557
:1008F0001071F5E7105300200B4AD2F85832F0B4CB
:1009000004460D466BB11146F1E99467864277EBD8
:10091000050001DAC1E900450133C2F85832F0BCE4
:10092000704702F51471F5E7105300200B4AD2F816
:100930002832F0B404460D466BB11146F1E98867E0
:10094000B04275EB070001DAC1E900450133C2F896
:100950002832F0BC704702F50871F5E7105300200B
:100960000B4AD2F83832F0B404460D466BB111464A
:10097000F1E98C67B04275EB070001DAC1E9004587
:100980000133C2F83832F0BC704702F50C71F5E75C
:10099000105300202DE9F04DDFF830814A4ED8F891
:1009A0006820D8F87C50F46B08F16C018AC9D21B1E
:1009B000D8F87870C91B9142A3EB0505B8BF114662
:1009C000A9420B46B8BF2B469C4256DB036BDC05A5
:1009D00002D40220BDE8F08DD8F88030D8F800208D
:1009E0009342F6DB416FC9054CD5D8F8B0319A4235
:1009F000EFDC002B56D100240025D6E9042333492F
:100A0000A24201F5EC70AB41C0E9004548DAD1F8EB
:100A10003832002B4FD101F50C71C1E9004501338B
:100A2000C8F8383200240021982229480DF0E2FB52
:100A30000420FFF7D3FCD8F8803033B32548FFF704
:100A4000FFFBD6E90667214B864203F5F872C2E93F
:100A5000000177EB01021BDAD3F82822DAB1F3E9BF
:100A60008845A04271EB050401DAC3E900010132B7
:100A7000C8F828220020BDE8F08DFFF7E5FC002033
:100A8000BDE8F08D0124002BD8D100200021D8E74B
:100A90002046BDE8F08D03F50873C3E90001E6E7E1
:100AA0000124C0E708F59C70FFF7CAFB040D44EA77
:100AB00001340D15A1E7F1E98CAB544575EB0B0240
:100AC000ADDAC1E90045AAE7D000002010530020AC
:100AD000485400201853002030B5036B03F0C003C6
:100AE000C02B85B004463BD0636F03F0C003C02B1E
:100AF00030D0D4F8B83003F0C002C02A19D003F0C7
:100B00006003602B01D005B030BDD4F8A050D4F8FC
:100B1000A400D4F8A830D4F8C010144A84139B134E
:100B2000AD1301A8019502940393FFF723FE05B0CE
:100B300030BDB4F98C00B4F98E50B4F99030D4F8CB
:100B4000C0100190094A029501A80393FFF712FE15
:100B500005B030BD04F148000549FFF7BBFDC8E70B
:100B600004300449FFF7B6FDBEE700BFB0530020D4
:100B700048540020185300202DE9F843036BD90591
:100B800040F18780426F02F05002402A044600F094
:100B90008380D0F8B82002F05002402A7CD003F0C5
:100BA0005003402B78D0C24DE36AD5F80812C04AF2
:100BB000994219D0092BC2F80832BE4E40F32C815D
:100BC000736BB76B306BC2F80C321946C2F81472F3
:100BD000106019228A40C3F110034FF48041C5F818
:100BE0001032F263C5F818122046FFF775FF95F82A
:100BF000E831062B4DD8DFE813F0FC00D000C70029
:100C000007009F007B0058002046FFF7C3FE002826
:100C100000F0FE8001283CD1D4F8B830DA0540F16C
:100C20003A81D5F80001D5F80431D5F80811A14F63
:100C30009F4E9842B8BF18468142D7E90223B8BFF9
:100C40000146084682424FEAE17106F5E87E8B4193
:100C5000CEE9000180F21681052386F8E831964B33
:100C6000D5F85822D3E90001002A40F0FB80C3E9FF
:100C70001E019249D5F848320132C5F85822D1E90F
:100C80000067002B40F0E480C1E914670133C5F828
:100C900048320020BDE8F883854DFFF7D5FB0023DF
:100CA000C5F8E03185F8E8317EE72046FFF772FEAF
:100CB0000128044600F0C8800028EAD1FFF7C4FBF1
:100CC00005F5867007C8D5F82831C5F80041C5F884
:100CD0000441C5F80841C5F81841C5F83041C5F8C8
:100CE0001C01C5F82011C5F82421C5F82C31D0E726
:100CF0000623012085F8E8310BF08CF9FFF7A4FBFF
:100D0000D5F80C31D5F81001D5F81411D5F82821F3
:100D1000C5F81C310023C5F80031C5F80431C5F809
:100D20000831C5F81831C5F83031C5F82001C5F8CB
:100D30002411C5F82C21ACE7D4F8B830DB0518D560
:100D4000D5F80421D5F80001D5F8083159495C4E91
:100D50008242B8BF02469342D1E90201B8BF1346AE
:100D60001A4690424FEAE373C6E9002371EB03038E
:100D70004EDB2046FFF70EFE002849D0012888D11F
:100D80002046FFF70DFC6AE70323204685F8E8318B
:100D9000FFF706FCFFF758FB7BE7D5F89830444E89
:100DA000012B7FF476AF2046FFF7F4FD002863D1D6
:100DB000052386F8E831D5F80C31D5F81001D5F8BF
:100DC0001411D5F82821C5F81C310023C5F80031CD
:100DD000C5F80431C5F80831C5F81831C5F8303107
:100DE000C5F82001C5F82411C5F82C21FFF750FDE6
:100DF0004FE7D5F8E0312E4C5A1C092BC5F8E021FD
:100E00007FF747AFFFF720FB012384F8E83140E785
:100E1000052385F8E8313CE7336B716B5B0007EE27
:100E2000903AB8EEE70A0131F1EEC07A1360C2F8E9
:100E30000C12F4EE677AF1EE10FA33D1C5ED857A33
:100E4000D5F80C32716BC4E6022385F8E83120E74F
:100E5000F1E91489B04579EB0702BFF617AFC1E994
:100E6000006713E7F3E91E67864277EB0104BFF6DC
:100E700000AFC3E90001FCE6012804BF022386F8A5
:100E8000E83198E7D6F82831D6F82C113A6A5B1A7F
:100E90009342FFF4E4AE0423204685F8E831FFF7DF
:100EA0007FFBDCE60EF06EFBF0EE407AC6E700BF9B
:100EB00010530020D0000020E854002000550020EE
:100EC000E054002010B500234010002817D1013352
:100ED00001229A4007EE902AB8EEE70A0C4CF1EE98
:100EE000C07A63632263F4EE677AF1EE10FA0AD1F6
:100EF000626BC4ED0E7A19239340E36310BD03F1D6
:100F00000103E1DCE3E70EF03DFBF0EE407AEFE7B2
:100F1000D00000202DE9F843154D164C284600213D
:100F20004FF418720DF066F90021402220460DF0B2
:100F300061F90720FFF752FA01204FF416720023DF
:100F40000D49C5F8E40140F2DC584FF000091426C1
:100F500000271920C4E90689C4E90267C4E904230B
:100F60002162FFF7AFFF0020C5F80802BDE8F88353
:100F700010530020D00000200008AF2F08B501203A
:100F80000BF048F80248BDE808400AF051BB00BF2A
:100F9000790B000808B5FFF7BDFF00B108BD024896
:100FA000BDE808400BF062B97504000808B5FFF70A
:100FB000E5FF0248BDE808400BF02CB975040008B5
:100FC000014BD3E90001704700550020704700BF76
:100FD00002484FF4167104220AF0D0BAED15000849
:100FE000F8B5436B002B2DED028B0F46F0EE408AD7
:100FF0001546C0F29480D0F8BC60A6F10306B6FA9C
:1010000086F6760968482422011DA0F1BC040DF083
:10101000D7F8DFED667AC4ED388A04F1BC0304F139
:10102000E402B3EC017A934277EE877AF9D1B2EE1B
:10103000047AC7EE877A312F5D49C4ED397A47DDEE
:10104000B7F57A7FB4BF9FED5B8A9FED5B8ADFEDDA
:101050005B6A88EE888AC823C1F81C3107EE105AF3
:10106000B8EEC77A27EE087A87EE268AD4F82021D0
:10107000534B002A18BFB0EE688A9D4208BFB0EEFD
:10108000688AB5EE408AF1EE10FA0EBF94ED3A7A16
:10109000C4ED3A7AB0EE677A77EE677AF0EEE77AE7
:1010A00017EE900A01F0F4FF3BA3D3E9002302F00E
:1010B000D7FA40B1D4ED2E7A3D4BF5EE407AF1EE01
:1010C00010FA00D16EBBB0EE480ABDEC028BF8BD41
:1010D0003C4BD1F81C019FED3C7ADFED386A83FB75
:1010E0000523EA17A2EBE32303EB83030344002B5E
:1010F000C1F81C3188EE877A37DB06EE105AB8EE5D
:10110000C68A27EE087A87EE268AAFD1D4F828312E
:10111000012B9FED267A08BFB0EE478AA6E700268E
:1011200070E7C822C3F81C2118EE900A01F0B0FF46
:101130000022264B02F02EF9064628460F4601F003
:1011400095FF02460B463046394601F0F9FF14A3DD
:10115000D3E9002302F01EF902F0EAFA08EE100AC1
:10116000B0EE480ABDEC028BF8BD06EE105AB8EEA0
:10117000C68A002327EE087AC1F81C3187EE268A3A
:10118000D4F82831012B9FED097A08BFB0EE478AC9
:101190006CE700BFAFF300801283C0CAA145B63F21
:1011A000000000000088B3402C5600200000000022
:1011B00070550020000048430000484200409C4514
:1011C00040420F00AD8BDB680000C843000079404F
:1011D0002DE9F04FDD4D2DED028BD5F82021ADB07E
:1011E0000023032A05930693079300F0A78105F1D6
:1011F000A40303931A469FEDD67A0BAB02930FAF6D
:1012000052F8041F07EE901AF8EEE77A67EE877A35
:10121000E3EC017ABB42F3D11FAECC4C01900DF14F
:10122000200930460AF04CFF48460AF01FFF04F13F
:101230000C013C2220460CF0C3FF04F1580150225F
:1012400004F148000CF0BCFF99E8070004F13C03EE
:1012500083E8070096E80F00D5F824B104F1980E52
:101260008EE80F000BF10103062BC5F8243140F383
:101270001F810623C4F824314FF0000B05EB0B133C
:1012800003F14808019B9FEDB38A0BEB4B0905EB7B
:10129000890903F1A00A23AC4146AF4822460AF06F
:1012A00029FB4946504622460AF09EFBF0EEC87ADA
:1012B000B0EEC07AB4EE677AF1EE10FA0BF1010BE2
:1012C00048BFB0EE408ABBF1060F08F1100809F1E3
:1012D0000C09E1D1019B03F118000AF0E4FA9F4BDD
:1012E000D5F830219A42A8BF1A468109B0EE480AC3
:1012F0000198FFF775FED5ED3B7A20EE270A1BA873
:1013000085ED2E0A0AF0DCFE1BA821460AF03FFDFF
:101310001BA9934832460AF0EDFA1BA890490AF03F
:1013200056FB0DF1140B4FF000090DF1880AA4468D
:101330000CEB090233460020002153F8044F52F809
:1013400004EB5345C4FB0E01F7D1830F09F10C09DF
:1013500043EA8103B9F1240F4BF8043BE8D1D5F8F7
:101360002031002B40F0AE80079C634208EE103A1B
:10137000BAEEC18AB0EE480A0EF048FFF0EE408A9D
:10138000B0EE480A0EF07AFF07EE904AB8EEE77A20
:10139000DFED747A87EE277AD5F83031724A82FB16
:1013A0000312DB17C3EBE22300261496159617AC45
:1013B00007EE903AF8EEE77AB6EE008A87EE277AE3
:1013C000DFED686A8DED160A27EE087ACDED138AF7
:1013D000BDEEC78A18EE103A5B0008EE103AB8EE80
:1013E000C88A28EE268A27EE888ABDEEC88ABAEE19
:1013F000C18AB0EE480A0EF009FF8DED170AB0EE73
:10140000480A189619960EF039FF13A90BA83A4608
:101410008DED1A0A0AF06CFB2146384613AA0AF031
:1014200067FB019BD3F8BC10002916DD13AE4F4AB1
:10143000DFED506A02983346B3EC017A67EE267A04
:10144000A342FDEEE77AA0EC017A17EE907A42F81B
:10145000047FF1D1032900F08F80D5ED2A7ADFEDEA
:101460003C5AD5F82031394CB8EEE76AD5ED2B7AE5
:10147000F8EEE76AD5ED2C7AB8EEE77AD5ED2D7A5D
:10148000F8EEE77A26EE256A66EEA56A27EE257A5B
:1014900067EEA57A8DED0F6ACDED106A8DED117AAC
:1014A000CDED127AABB92DB0BDEC028BBDE8F08F5B
:1014B000CBF1050BBBF1050F7FF7E0AE9FED258A61
:1014C00023AC07E79FED2A7AF7EE008AB0EE470AD1
:1014D00062E7D4ED2E7A9FED278AF6EE008A67EE5A
:1014E000A88AB0EE680A0EF091FE20EE080A0022EB
:1014F000FDEEC07AB0EE680AC4ED2A7AC4F8AC20DA
:10150000C4F8B0200EF0BAFE20EE080A019BBDEE32
:10151000C00AD3F8C01084ED2D0A04F1A8000AF027
:101520003FFDD5F82031094A002BBCD0013BC2F861
:1015300020312DB0BDEC028BBDE8F08F0223C5F841
:1015400020312DB0BDEC028BBDE8F08F705500202E
:1015500000008030002474491856002040420F00DB
:101560006C560020E1023747AD8BDB681456002033
:10157000000000000000804E00F0E4FE00287FF430
:101580006CAFD5ED2E7AB6EE008A27EE888AB0EEE3
:10159000480A0EF03BFE00238DED170AB0EE480A14
:1015A000189319930EF06AFE0BA8214613AA8DED2D
:1015B0001A0A0AF09DFA13A80AF03CFB1FED137AF1
:1015C000039BF6EC017A67EE877AA642FDEEE77A96
:1015D00017EE902A43F8042FF3D1019B0248D3F869
:1015E000C0100AF0DDFC9CE71856002038B5D0F892
:1015F000B830224A13F0100308BFC2F82431D0F8E3
:10160000203104BF0321C2F82011DC0505D4036B8F
:10161000D90527D5436FDB0524D5D2F83431174AD5
:1016200073B1D0F8C030D0F8C44015491B1BA1FBE2
:1016300003139B09C2F83031FFF7CAFD002038BD03
:10164000D0F8B01044F61F65A94213DCD2F82C4143
:101650002144A942C2F82C11F0DDC2F83011C2F8C1
:101660002C31E9E703210023C2F82011C2F824310C
:10167000002038BDC2F83011DEE700BF70550020F1
:10168000D34D621010B50D4C4FF49C7200212046D2
:101690000CF0B0FD20464FF0804340F8A83F0021F9
:1016A000C4F8FC300AF07CFC4FF47A724FF07E53A1
:1016B000C4F81C21C4F8EC3010BD00BF70550020E8
:1016C000024B002083ED3B0A704700BF705500209D
:1016D000024BC3F828010020704700BF705500205E
:1016E000024BC3F834010020704700BF7055002042
:1016F000014809F09DBF00BFED15000808B5FFF7D0
:10170000C1FF054B05480022C3F82821C3F8342146
:10171000BDE808400AF0AABD70550020D10F0008AE
:1017200001480AF077BD00BFD10F0008AFF3008079
:1017300002489621082209F021BF00BF4117000886
:101740002DE9F04FADB01BA904461DA809F086FE97
:101750001CA80AF057FC02280DD09449D4F8E430B4
:1017600091F8B0011B9A10B19B1A40F0F78000204D
:101770002DB0BDE8F08F636B032BF8D109F060FE4C
:101780000028F4D0DFF82482894CD8F8B421D8F8A6
:10179000B8311B9D9B1A84FB0314DB17C3EB640356
:1017A000AA1A92FBF3F3DCB2042CE0D8542303FB17
:1017B00004F908EB090C9CF85030052B00F09A81D5
:1017C0005A1C8CF8502004EB4404C4EBC40423449A
:1017D00008EB8304204698F8C0111D9EE56303F1D1
:1017E0000A021E9C48F82360446100231F9848F8B1
:1017F000220001292093219322932393249325935C
:1018000026932793289329932A932B93674AAED143
:10181000DDE92001CDE90C01DDE92201CDE90A0174
:10182000DDE92401CDE90801DDE92601CDE90E015C
:10183000DDE928019C46D2F8B431D2F8B8E116931C
:10184000CDE906019146DDE92A0100220023CDE918
:101850001223CDE90401CDF85CC0CDF844C0714637
:1018600054465D4699F850E0BEF1000F00F0AC80A0
:101870004A46CDF860904FF0000C8946CDE900450E
:101880000BE016999942B8BF194616910CF1010C5C
:10189000F44502F1040200F08D80D36B116881FBE6
:1018A0000301040C44EA01440914019151690094B4
:1018B00081FB0301060C46EA01460F14916A81FB85
:1018C00003014FEA104A4AEA014A4FEA214B83FBDF
:1018D0000301040C44EA014402940914DDE90C45B7
:1018E00003911168641845EBE17511991944CDE92C
:1018F0000C451191DDE90045DDE90E0124184D414B
:1019000020462946DDE90A45CDE90E0151696418F2
:1019100045EBE175DDE9060180197941CDE90A451C
:10192000DDE90845CDE90601916A641845EBE175EA
:10193000DDE9040110EB0A0041EB0B01CDE908459C
:10194000CDE90401DDE91245DDE902010019694133
:101950004B45CDE9120194DA994697E7D1F8A47185
:10196000D1F8AC21D1F8A8011D9E1E9D1F9C83FBC0
:10197000000183FB078983FB02AB4FEA184E070C7B
:101980004FEA1A424EEA094E47EA014742EA0B4241
:101990001DA8764414443D4403211D961E951F94B2
:1019A00009F018FD00202DB0BDE8F08F10010020D7
:1019B00067666666179BDDE900456344494603F0A8
:1019C000FF03DDF8609017935D4B09F154099945C9
:1019D0007FF448AF169AD8F8BC31DDF844C0C1EBAB
:1019E000020A8E46DDE90C01CDE92001DDE90A019C
:1019F000CDE92201DDE90801CDE92401DDE90E018F
:101A0000CDE92601DDE90601CDE92801DDE9040182
:101A10009A45CDE92A01FFF6AAAE8CFB0C23DDE93D
:101A20001245179FDFF818A1CDF808A0110C41EA64
:101A3000034100911B14A4FB0701019307FB05134D
:101A4000CDE908010993DDE90801DDE90023821AE7
:101A500061EB0303CDE90C236246D317CDE90A23DA
:101A600026AE0DF18009069799E83000DDE90AAB52
:101A700096E8030004FB0BFE05FB0AEE0027A4FB1F
:101A80000A45754400FB07FE069F01FB07EEA0FB1D
:101A90000701CDE904017144DDE908AB0591DDE9F9
:101AA00000018B4508BF8245DDE90C2306F10806DD
:101AB00009F1080914D0270C47EA05472C1414979C
:101AC0001594DDE91445DDE90401001B61EB050116
:101AD000090441EA1041000401F088FF029B1860EC
:101AE000029B043302932CAB9E42BDD1012388F8A4
:101AF000B0313CE608EB09000146403110223C3091
:101B0000CDF810C00CF05CFBDDF810C009F1040149
:101B10006046414410220CF053FB08EB09000146DB
:101B20001831102214300CF04BFB09F1280009F198
:101B30002C014044414410220CF042FB042342E6B5
:101B4000B402002070B40B4E06F5D273054693E83C
:101B5000070085B08DE8070096F8B0318DF80C309D
:101B60006C460FCC286000206960AA60EB6005B06D
:101B700070BC70471001002070B4034685B0006847
:101B800059689A68DB68074E6C460FC406F5D27335
:101B90009DF80C4086F8B04183E80700002005B0AE
:101BA00070BC70471001002010B50B4C002120467E
:101BB0004FF4E2720CF01EFB084BC4F8B431012361
:101BC0004FF4AA014FF4A02284F8C031C4F8B81130
:101BD000C4F8BC21002010BD100100200000D8FF77
:101BE000024BC3F8B8010020704700BF100100206D
:101BF000024BC3F8B4010020704700BF1001002061
:101C0000024BC3F8BC010020704700BF1001002048
:101C100058B1074BD3F8A4210260D3F8A821426041
:101C2000D3F8AC318360002070471620704700BFA6
:101C30001001002024207047034608B92420704773
:101C4000024A002082F8C031704700BF1001002016
:101C500000207047014809F0EBBC00BF41170008A5
:101C600008B5FFF7A1FF0A480A4910224FF49A73FA
:101C70000AF032FB08B1012008BD07480AF0F6FA65
:101C80000028F8D1054B012283F8B12108BD00BF1F
:101C9000791B0008451B00083117000810010020BF
:101CA00010B5084C94F8B10100B910BD064809F010
:101CB000BFFC06480AF0AEFA10B984F8B10110BDB5
:101CC000012010BD10010020411700083117000845
:101CD00002484FF49671042209F050BC0D2300080D
:101CE000002805DD034B0122C3F88000C3F88420DF
:101CF00000207047D402002070B50C4C0C4E0D4DE6
:101D000000212046B8220CF075FA0B4A0B4BE2601A
:101D10000B4860604FF080414FF4FA62A660256086
:101D20006166E267C4F89C30002070BDD4020020D8
:101D30000000B4C2000070420000B4427B142E3E8A
:101D40000000F041014809F073BC00BF0D230008FA
:101D500008B5FFF7D1FF00B108BD064A0346C2F837
:101D60008C300123C2F888300348BDE808400AF0EF
:101D70007DBA00BFD4020020D11C000810B5044C6D
:101D8000204609F055FC2046BDE8104009F050BC43
:101D90000D230008024B0020C3F88C00704700BFE1
:101DA000D4020020024B0122C3F88C20002070478F
:101DB000D4020020234B50B1012817D0002201216A
:101DC000C3F89810C3F88C20C3F890207047002106
:101DD000012283ED280A83ED290AC3F89400C3F891
:101DE0009800C3F8A810C3F890207047D3ED287A64
:101DF00093ED277A70EE677AF0EEE77AF4EEC77A21
:101E0000F1EE10FA16D5D3ED297AD3F8942030EEFE
:101E1000270A0132312A83ED290AC3F894200FDD05
:101E2000DFED097A80EE270A0222C3F8902083EDC5
:101E30002A0A70470022C3F89020C3F89420704704
:101E4000704700BFD402002000004842F0B58FB0B8
:101E500006460D4605A9144609F099FF01AA284631
:101E6000314609F047FD3046294609F0B0FD05AF7F
:101E7000A4F1040C04F108020DF1100E01AB3C4674
:101E80000020002153F8045F54F8046B7345C5FB30
:101E90000601F7D1830F43EA81034CF8043F9445D0
:101EA00007F10C07EAD10FB0F0BD00BF90ED010AB9
:101EB00090ED007AD0ED027AB8EEC00AB8EEC77A9B
:101EC00020EE000AF8EEE77AA7EE070AA7EEA70AC7
:101ED000F1EEC07AF4EE677AF1EE10FA04D19FEDDC
:101EE000070A27EE800A704708B50DF04BFBF0EEAD
:101EF000407A9FED020A27EE800A08BD0000803775
:101F000010B51E4CD4ED007AF4EEC07AF1EE10FA62
:101F100006D4D4ED017AB4EEE70AF1EE10FA12D548
:101F2000636F164AA3B1012200236267A367E26FC1
:101F300012499A4206DC4B6F012B04BF0023CB658C
:101F40000023636710BD2369012B07D0A36FEEE761
:101F500002F11800916D0AF023F8E4E7D4ED037A5A
:101F6000F4EEE07AF1EE10FADAD4D4ED027AF4EE7F
:101F7000E70AF1EE10FAE9D5D2E700BFD40200205B
:101F800010B52DED028B0446B0EE408A0AF034F80D
:101F90000F4B30B9DFED0F7AB4EEE78AF1EE10FAAD
:101FA00010DD00221A615A615869094A2044B0F5CF
:101FB000FA7F586103DD0121002311615361BDECFB
:101FC000028B10BD1A69002AEED0BDEC028B10BD49
:101FD000D402002000401C462DE9F0432DED048B77
:101FE000C24D8BB00024049405940694D5F8884023
:101FF00034B9002318460BB0BDEC048BBDE8F08368
:102000001C4616468846074609F060F9002840F04D
:102010003081D5F88030DFF8D492002B11DD012318
:10202000C9F8843009F052F9002840F0AA80D9F8A4
:102030008030DB1BC9F88030002BDCBF0023C5F8E3
:1020400084300AF0B1F80028D3D09FEDA98ADFEDE3
:10205000A96A231F06F10802341F54F8041F07EE73
:10206000101A53F8041FB8EEC77A07EE901A27EE3D
:10207000267AF8EEE77A944267EE277AA7EEA68AE8
:10208000EBD13046FFF712FFF0EE408A88EE000AEF
:10209000F7EE007AB4EEE70AF1EE10FA67DDB0EE83
:1020A000670A0EF087F8D5F88C30904AB0EE408A77
:1020B00073B1D2ED007AF4EEE78AF1EE10FA07D5AB
:1020C000D2ED017AF4EEE78AF1EE10FA00F3D58052
:1020D00007AC864E204609F0BDFF204606F1AC0154
:1020E0000C220CF05DF8002855D1D6F89830012B61
:1020F00051D0EB6D7D4E5BB90123F36506F11804F9
:10210000583620467C49103409F060FFB442F8D1BB
:10211000764C01AA404604F16401FFF797FE04F1F2
:102120006401404609F053FC04A809F0BCFB00EE32
:10213000100A3846BBEECD0AFFF722FFB0EE680A60
:10214000F0EE480AFFF7DCFEAB6FEA6F934201DA6C
:102150003B44A3676B6F654C002B7FF44BAF206E45
:102160000744B7F57A7F00F38D80276642E7FFEEDC
:10217000007AB4EE670AF1EE10FA48BFB0EE670AD3
:102180008FE704A809F08FFBB0F5C84FD9F880306D
:10219000BFF44FAF50E794E80700DFF850E1079B2A
:1021A0000EF1AC0686E80700A3B9089B93B9099B1A
:1021B00083B9DEF898205149CEF80010012A504921
:1021C000CEF8041078D04F4A4F4BCEF80820CEF806
:1021D0000C308EE72046FFF769FEB5EE400AF1EEBF
:1021E00010FAB0EE409A84D0B2EE040A39EE400AFA
:1021F00020EE000AB1EEC07AB4EE477AF1EE10FAA2
:102200006ED1F2EE047A79EE277A85ED017A67EEE7
:10221000A77AB1EEE70AB4EE400AF1EE10FA5AD10D
:10222000DDED097A85ED000AFAEEC87AB7EE007A9C
:1022300087EE899AB4EEC79AF1EE10FA32DDB0EE6D
:10224000479AB0EE490A0DF0B5FFD5ED277A70EE4A
:10225000677AB0EE490AC5ED027A0DF0ABFFD5ED15
:10226000277A30EE270A002385ED030AC5F88C3063
:102270003FE704A809F072FACBE6D2F89000FFF726
:1022800099FD25E704F12801302204F118002366A6
:102290000BF096FF04F1480004F1580109F096FE96
:1022A000636FA7E6FFEE007AB4EE679AF1EE10FADC
:1022B00048BFB0EE679AC4E7DEED2A7A9EED277A32
:1022C000CEF8983077EEC76A77EE877ACEED026A5D
:1022D000CEED037A0DE7B0EE670A0DF053F99FE7F4
:1022E0000DF050F9B0EE407A8BE700BFD402002029
:1022F00000000000000080372C0300200000704226
:102300000000F0410000B4C20000B44270B50446C1
:1023100088B001A809F0AAFED4F8C030D4F8C4509F
:1023200004A85D1B09F0CCFE04A9064604F1A00236
:1023300001AB2846FFF750FE09F046F8304608B0DA
:1023400070BD00BF014B586F704700BFD402002022
:1023500090ED017AD0ED007AD0ED026AB8EEC70AAE
:10236000B8EEE77A20EE000AF8EEE66AA7EE070A72
:1023700038B590ED037AA6EEA60AB8EEC77AA7EEB6
:10238000070AB5EEC00AF1EE10FA37D9F1EEC06ACD
:102390000C460546F4EE666AF1EE10FA36D1B7EE59
:1023A000007A87EE260A9FED1D6AF8EEE77A20EEA6
:1023B000060A67EE807AFDEEE77AC4ED007AD5ED85
:1023C000017AF8EEE77A67EE807AFDEEE77AC4EDFF
:1023D000017AD5ED027AF8EEE77A67EE807AFDEEC3
:1023E000E77AC4ED027AD5ED037AF8EEE77A27EEC4
:1023F000800ABDEEC00A84ED030A38BD00234FF009
:10240000804281E80C008B60CB6038BD0DF0BAF8DB
:10241000D5ED007AF0EE406AC1E700BF0000804EC3
:1024200008B5084B0849186808220BF0B9FE08B136
:10243000322008BD0548C8211322BDE8084009F034
:102440009DB800BF58000020C41E0108052D0008DB
:10245000F0B5866986EAE673A3EBE673B3F5803FD1
:1024600089B060DAC369002BB8BF5B42B3F5803F27
:1024700061DBB3F5C80F75DD3F4D0323AB63836AA2
:102480006A6B3D4F9A4204466ED007EE903ADFEDFC
:102490003B6A9FED3B7A7B63F8EEE77AC7EEA67A5C
:1024A00067EE877A17EE900A00F0F2FD30A3D3E9C9
:1024B000002300F045FE0022324B00F041FE0022D6
:1024C000314B00F067FF01F0EBF801463863002361
:1024D0003046009309F001FA296B0190E06909F098
:1024E000FCF9296B0290206A09F0F7F904AA03901D
:1024F0006946214809F0FEF9049D059C069A079B50
:102500001D489B0104A9AE01A50194010246079351
:1025100004960595069409F046FA17480146FFF718
:1025200017FF09B0F0BDB3F5C80FA5DCC369002BD8
:10253000B8BF5B429DE7036A83EAE372A2EBE372F2
:10254000B2F5803F09DB002BB8BF5B42B3F5C80F83
:1025500092DC094D0223AB6391E7074B00229A639B
:1025600009B0F0BD036AEEE7396BB0E7AFF3008066
:10257000182D4454FB2109408C0300200024744989
:102580000000004E0000704000806640036B5B0658
:1025900000D55DE7704700BF30B50A4C85B00546F1
:1025A0006946204609F013FA2846694604F12002DC
:1025B00009F0A0F928686968AA68EB6810340FC4AC
:1025C00005B030BD8C0300202DE9F043436F2DEDA5
:1025D000048B03F05003402B9DB0044600F043826F
:1025E000D0F82011A64E01F05003402B00F0E282FB
:1025F000CD0500F15B81236B590600F11F82A04DD0
:1026000005F1100205F12000294609F073F9636F06
:102610005A0656D5D4F82021236B1343DB0556D533
:1026200005F1100004F15C0110AA09F03FFA226ED6
:10263000E06D616E82FB0223C0FB0023C1FB01231E
:102640006FF040484FF00209904579EB0303C0F268
:10265000BD82B36B042B00F0CC829A1E012A40F29B
:10266000F181012B00F000830124864BA40003FBC1
:1026700004F41198002521468002149509F02DF9E3
:10268000109B159058422146800209F026F918AA9D
:1026900016907D49179514A809F02CF97A4818A9C5
:1026A000024609F080F978480146FFF751FE694675
:1026B000734809F08CF97448694600F1100209F07A
:1026C00019F900201DB0BDEC048BBDE8F083D4EDFA
:1026D000187AE56EB8EEE70AD4ED177A20EE000A14
:1026E000B8EEE77AD4ED197AA7EE070AF8EEE77AA2
:1026F000A7EEA70AF1EEC07AF4EE677AF1EE10FACF
:1027000040F0DC829FED617AF0EEE76AF4EEC76A92
:10271000F1EE10FACBDD94ED176AD4ED186A94ED62
:10272000190A96ED047A9FED5A5AB8EEC66AF8EE89
:10273000E66A86EE276A18AF002304AA384614A971
:102740001493C6EEA76AB8EEC00AF8EEC75AC0EEF8
:10275000277A96ED057A8DED156AB8EEC76A96ED83
:10276000067ACDED166AF8EEC76A96ED077ACDEDDA
:10277000177AB8EEC77A26EE056A66EE856A27EE06
:10278000057A65EE855A8DED196ACDED1A6A8DEDE3
:102790001B7ACDED185A09F0ABF938460CA909F0AF
:1027A000E1FA04A80CA908AA09F0A2F9DDED096A6A
:1027B0009DED0A6ADFED377A26EEA67AA6EE067A56
:1027C000B4EEE77AF1EE10FA00F11B82DFED327A17
:1027D000B4EEE77AF1EE10FA00F15A82DFED2F7ACB
:1027E000DFED2F5AB4EEE77AF1EE10FAF5EE007A4B
:1027F00048BFF0EE675A07EE105ADFED2A7AB8EEBE
:10280000C77A002387EE277A10A8394608AA1093C2
:10281000139367EE257A26EE276A66EEE77A8DED4A
:10282000116ACDED127A09F063F908A8024639461B
:1028300009F0DFF908A809F059FADFED1B5A9DED00
:10284000086ADDED096A9DED0A7ADDED0B7A26EE68
:10285000256A66EEA56A27EE257A67EEA57ABDEEB3
:10286000C66AFDEEE66ABDEEC77AFDEEE77A86ED52
:10287000046AC6ED056A86ED067AC6ED077A16E7A4
:102880008C030020A69BC4009C030020000080460F
:102890000000803017B751390AD7233CCDCC4C3ECD
:1028A000CDCCCC3E0014CD470000804E48067FF5CD
:1028B000A6AED4F810213768D4F82C51DB4BDC4895
:1028C00003FB05F3D21B9A42CCBF0323022311F46E
:1028D0000071836340F08F8110ADD54F284608F01A
:1028E000BDFD284607F13C010C220BF059FC28B92C
:1028F000BB6DD4F828219A4200F0D98118AF3B462D
:102900002088616A2A4609F0C1FADDED197A9DED49
:10291000187AF8EEE77AF8EEC76A67EEA77A9DEDC7
:102920001A7AE6EEA67AB8EEC77AE7EE077AF1EE03
:10293000E78AB0EE670AF4EE688AF1EE10FA40F02A
:10294000D181DFEDBC6A9FEDBC7AD4F82881DFED40
:10295000BB7A9FEDBB8A68EEA66A06EE108A86EE09
:10296000877AB8EEC66A27EE277AF6EE006A67EE37
:10297000067AC7EE887A27EEA68AB0EE480A0DF0EE
:1029800045FCB0EE409AB0EE480A0DF077FCF0EE50
:10299000007AF4EEE78AF1EE10FA00F13581DDED10
:1029A000187A9FEDA86AF8EEE76ADDED197AB8EEBD
:1029B000E77ADDED1A7A20EE460AF8EEE77A60EE65
:1029C000266A20EE077A20EE270AC6EEA86A87EE6E
:1029D000287AC0EE287A29EE069AFDEEE66ABDEE68
:1029E000C77AFDEEE77ABDEEC99AC6ED136A86EDA9
:1029F000147AC6ED157A86ED129A95E80700924B87
:102A0000C6F8588083E8070004F5887528463A46DA
:102A10008E4908F06FFF14AA39468D4808F06AFF06
:102A200028468B4908F0D3FF14A981483A4608F09C
:102A300061FF38467E49FFF78BFCE0E52046FFF753
:102A400007FDDCE5E16E834CCA1784FB0114C2EB81
:102A5000E424012CB8BF0124032B7FF406AE7E4B87
:102A600003FB04F405E6D0ED187AB8EEE70AD0EDE2
:102A7000177A20EE000AB8EEE77AD0ED197AA7EEC1
:102A8000070AF8EEE77AA7EEA70AB1EEC08AB4EE1D
:102A9000488AF1EE10FA40F00C81B7EE007AB4EEFD
:102AA000C78AF1EE10FA40F2B780D4ED197AF8EE49
:102AB000E77A87EE888A37EE487AB5EEC07AF1EE8B
:102AC00010FAC6BFB6EE000A27EE000A9FED630AB1
:102AD000F1EEC08AF4EE688AF1EE10FA40F0FD8063
:102AE000B7EE000A38EE008AB5EEC08AF1EE10FAB1
:102AF000C6BFB6EE000A28EE000A9FED580AB1EEF6
:102B0000C09AB4EE499AF1EE10FA40F0E180D4EDAB
:102B1000187AB8EEE70AD4ED177A20EE000AF8EE3C
:102B2000E77AA7EEA70AB1EEC07AB4EE477AF1EEE3
:102B300010FA40F0C880F7EE007AB4EEE77AF1EED2
:102B400010FA69D9D4ED187A94ED176ADFED3D6A71
:102B5000374EF8EEE77AB8EEC60AC7EE877A00235A
:102B6000F36180EE077A68EEA77A68EEC78A67EEAF
:102B7000A67A29EE269A68EEA68AFDEEE77ABDEEE1
:102B8000C99AFDEEE88AC6ED057A86ED049AC6ED8F
:102B9000068AD4F82031DB0574D46946244808F04D
:102BA00016FF2F48694600F1100208F0A3FED4F882
:102BB00020111DE500F5887006F15C0108F007FFA3
:102BC000636FDF0567D4D4F8201111E50CA809F074
:102BD000F7FA0D9A0C980E9982FB0223C0FB002392
:102BE000C1FB0123904579EB0303BFF632AD04230B
:102BF000AB6300243DE504F588700D49FFF7A8FBA1
:102C0000FDE4DFED185AF6E500234FF08042B26490
:102C1000F36433657365F0E6054E00234FF08042A0
:102C200032617361B361F361B3E700BF71981C0057
:102C30008C030020DB0F4940000034430000803744
:102C4000002474490000804EC8030020D4030020F3
:102C5000E8030020AD8BDB68A69BC40000000000E9
:102C60009C030020A69BC43BE26E214CD31784FB3F
:102C70000224C3EBE424002CC9BF1E4B1E4CE4000D
:102C80005C43F6E404F588701C4908F0A0FE84E774
:102C9000DFED1B5AAFE56946304608F098FE6946FD
:102CA00006F1100006F1200208F024FE8BE718AFB1
:102CB000AAE60CF067FCB0EE408AEEE60CF062FC8F
:102CC000F0EE407A1EE50CF05DFCB0EE407A32E7A3
:102CD0000CF058FCB0EE409A19E70CF053FCF0EE03
:102CE000408AFDE60CF04EFCF0EE408A29E600BF7B
:102CF000AD8BDB68A69BC40030DD2406E803002012
:102D00008FC2753D38B5036BDC0502D4436FD9051E
:102D10000FD5D0F8203103F44073B3F5407F04465B
:102D200011D0FFF751FCA16B0C4809F023F90020EA
:102D300038BDD0F82031DA05F9D503F44073B3F586
:102D4000407F0446EDD1054DD0F81001D4F81411A0
:102D5000D4F81821D4F81C310FC5E4E79C030020F7
:102D6000014808F065BC00BF052D000810B5074CF0
:102D7000002120466C220BF03DFA4FF08043236186
:102D800023602362E363E365002010BD8C03002011
:102D900008B5FFF7EBFF00B108BD0248BDE80840E9
:102DA00009F064BA2124000808B5044808F040FC82
:102DB0000348BDE8084009F02DBA00BF052D000802
:102DC00021240008AFF3008081F0004102E000BF41
:102DD00083F0004330B54FEA41044FEA430594EADB
:102DE000050F08BF90EA020F1FBF54EA000C55EA16
:102DF000020C7FEA645C7FEA655C00F0E2804FEAE7
:102E00005454D4EB5555B8BF6D420CDD2C4480EAC8
:102E1000020281EA030382EA000083EA010180EAF8
:102E2000020281EA0303362D88BF30BD11F0004F46
:102E30004FEA01314FF4801C4CEA113102D040427C
:102E400061EB410113F0004F4FEA03334CEA1333B7
:102E500002D0524263EB430394EA050F00F0A780CF
:102E6000A4F10104D5F1200E0DDB02FA0EFC22FACA
:102E700005F2801841F1000103FA0EF2801843FABE
:102E800005F359410EE0A5F120050EF1200E012AAF
:102E900003FA0EFC28BF4CF0020C43FA05F3C018ED
:102EA00051EBE37101F0004507D54FF0000EDCF166
:102EB000000C7EEB00006EEB0101B1F5801F1BD30F
:102EC000B1F5001F0CD349085FEA30004FEA3C0C13
:102ED00004F101044FEA445212F5800F80F09A8009
:102EE000BCF1004F08BF5FEA500C50F1000041EB0D
:102EF000045141EA050130BD5FEA4C0C404141EB11
:102F00000101013C28BFB1F5801FE9D291F0000F0B
:102F100004BF01460020B1FA81F308BF2033A3F1BA
:102F20000B03B3F120020CDA0C3208DD02F1140CB1
:102F3000C2F10C0201FA0CF021FA02F10CE002F1EC
:102F40001402D8BFC2F1200C01FA02F120FA0CFCE5
:102F5000DCBF41EA0C019040E41AA2BF01EB04512E
:102F6000294330BD6FEA04041F3C1CDA0C340EDC2C
:102F700004F11404C4F1200220FA04F001FA02F36F
:102F800040EA030021FA04F345EA030130BDC4F12D
:102F90000C04C4F1200220FA02F001FA04F340EA22
:102FA0000300294630BD21FA04F0294630BD94F0D3
:102FB000000F83F4801306BF81F480110134013DBA
:102FC0004EE77FEA645C18BF7FEA655C29D094EA2B
:102FD000050F08BF90EA020F05D054EA000C04BFA9
:102FE0001946104630BD91EA030F1EBF0021002094
:102FF00030BD5FEA545C05D14000494128BF41F033
:10300000004130BD14F580043CBF01F5801130BD96
:1030100001F0004545F0FE4141F470014FF0000021
:1030200030BD7FEA645C1ABF194610467FEA655CD2
:103030001CBF0B46024650EA013406BF52EA033574
:1030400091EA030F41F4002130BD00BF90F0000F62
:1030500004BF0021704730B54FF4806404F132049E
:103060004FF000054FF0000150E700BF90F0000F57
:1030700004BF0021704730B54FF4806404F132047E
:1030800010F0004548BF40424FF000013EE700BF4E
:1030900042004FEAE2014FEA31014FEA02701FBFDE
:1030A00012F07F4393F07F4F81F06051704732F010
:1030B0007F4208BF704793F07F4F04BF41F4002167
:1030C000704730B54FF4607401F0004521F00041C5
:1030D0001CE700BF50EA010208BF704730B54FF04F
:1030E00000050AE050EA010208BF704730B511F050
:1030F000004502D5404261EB41014FF4806404F188
:1031000032045FEA915C3FF4D8AE4FF003025FEA0D
:10311000DC0C18BF03325FEADC0C18BF033202EB91
:10312000DC02C2F1200300FA03FC20FA02F001FAEB
:1031300003FE40EA0E0021FA02F11444BDE600BF8E
:1031400070B54FF0FF0C4CF4E06C1CEA11541DBF3D
:103150001CEA135594EA0C0F95EA0C0F00F0DEF808
:103160002C4481EA030621EA4C5123EA4C5350EAED
:10317000013518BF52EA033541F4801143F480133E
:1031800038D0A0FB02CE4FF00005E1FB02E506F0CF
:103190000042E0FB03E54FF00006E1FB03569CF024
:1031A000000F18BF4EF0010EA4F1FF04B6F5007F2A
:1031B00064F5407404D25FEA4E0E6D4146EB06069C
:1031C00042EAC62141EA55514FEAC52040EA5E5025
:1031D0004FEACE2EB4F1FD0C88BFBCF5E06F1ED8CF
:1031E000BEF1004F08BF5FEA500E50F1000041EB06
:1031F000045170BD06F0004646EA010140EA0200B3
:1032000081EA0301B4EB5C04C2BFD4EB0C0541EAD4
:10321000045170BD41F480114FF0000E013C00F3E9
:10322000AB8014F1360FDEBF002001F0004170BD0D
:10323000C4F10004203C35DA0C341BDC04F1140426
:10324000C4F1200500FA05F320FA04F001FA05F2B2
:1032500040EA020001F0004221F0004110EBD3707F
:1032600021FA04F642EB06015EEA430E08BF20EAAB
:10327000D37070BDC4F10C04C4F1200500FA04F34E
:1032800020FA05F001FA04F240EA020001F00041E0
:1032900010EBD37041F100015EEA430E08BF20EA53
:1032A000D37070BDC4F1200500FA05F24EEA020E9B
:1032B00020FA04F301FA05F243EA020321FA04F0CA
:1032C00001F0004121FA04F220EA020000EBD37081
:1032D0005EEA430E08BF20EAD37070BD94F0000F81
:1032E0000FD101F00046400041EB010111F4801FB5
:1032F00008BF013CF7D041EA060195F0000F18BF66
:10330000704703F00046520043EB030313F4801FA1
:1033100008BF013DF7D043EA0603704794EA0C0F5B
:103320000CEA135518BF95EA0C0F0CD050EA410671
:1033300018BF52EA4306D1D181EA030101F00041EE
:103340004FF0000070BD50EA410606BF1046194616
:1033500052EA430619D094EA0C0F02D150EA013622
:1033600013D195EA0C0F05D152EA03361CBF104663
:1033700019460AD181EA030101F0004141F0FE4102
:1033800041F470014FF0000070BD41F0FE4141F486
:10339000780170BD70B54FF0FF0C4CF4E06C1CEA86
:1033A00011541DBF1CEA135594EA0C0F95EA0C0F3B
:1033B00000F0A7F8A4EB050481EA030E52EA0335F6
:1033C0004FEA013100F088804FEA03334FF0805517
:1033D00045EA131343EA12634FEA022245EA111544
:1033E00045EA10654FEA00260EF000419D4208BFF5
:1033F000964244F1FD0404F5407402D25B084FEAA2
:103400003202B61A65EB03055B084FEA32024FF44D
:1034100080104FF4002CB6EB020E75EB030E22BFAA
:10342000B61A754640EA0C005B084FEA3202B6EB6A
:10343000020E75EB030E22BFB61A754640EA5C0019
:103440005B084FEA3202B6EB020E75EB030E22BFA9
:10345000B61A754640EA9C005B084FEA3202B6EBAA
:10346000020E75EB030E22BFB61A754640EADC0069
:1034700055EA060E18D04FEA051545EA16754FEACB
:1034800006164FEAC30343EA52734FEAC2025FEAE9
:103490001C1CC0D111F4801F0BD141EA00014FF078
:1034A00000004FF0004CB6E711F4801F04BF014349
:1034B0000020B4F1FD0C88BFBCF5E06F3FF6AFAE65
:1034C000B5EB030C04BFB6EB020C5FEA500C50F1F5
:1034D000000041EB045170BD0EF0004E4EEA113178
:1034E00014EB5C04C2BFD4EB0C0541EA045170BD7F
:1034F00041F480114FF0000E013C90E645EA060EC3
:103500008DE60CEA135594EA0C0F08BF95EA0C0FF0
:103510003FF43BAF94EA0C0F0AD150EA01347FF438
:1035200034AF95EA0C0F7FF425AF104619462CE70F
:1035300095EA0C0F06D152EA03353FF4FDAE104672
:10354000194622E750EA410618BF52EA43067FF4C3
:10355000C5AE50EA41047FF40DAF52EA43057FF453
:10356000EBAE12E74FF0FF3C06E000BF4FF0010C5E
:1035700002E000BF4FF0010C4DF804CD4FEA410CC2
:103580007FEA6C5C4FEA430C18BF7FEA6C5C1BD08F
:1035900001B050EA410C0CBF52EA430C91EA030F10
:1035A00002BF90EA020F0020704710F1000F91EA6D
:1035B000030F58BF994208BF90422CBFD8176FEA3B
:1035C000E37040F0010070474FEA410C7FEA6C5C09
:1035D00002D150EA013C07D14FEA430C7FEA6C5C10
:1035E000D6D152EA033CD3D05DF8040B704700BF3C
:1035F0008446104662468C461946634600E000BF8A
:1036000001B5FFF7B7FF002848BF10F1000F01BD5B
:103610004DF808EDFFF7F4FF0CBF012000205DF826
:1036200008FB00BF4DF808EDFFF7EAFF34BF0120AB
:1036300000205DF808FB00BF4DF808EDFFF7E0FF44
:1036400094BF012000205DF808FB00BF4DF808ED95
:10365000FFF7CEFF94BF012000205DF808FB00BFFC
:103660004DF808EDFFF7C4FF34BF012000205DF8DE
:1036700008FB00BF4FEA410C7FEA6C5C02D150EAC4
:10368000013C0AD14FEA430C7FEA6C5C02D152EA5A
:10369000033C02D14FF0000070474FF0010070472B
:1036A0004FEA410212F5001215D211D56FF478736A
:1036B000B3EB625212D94FEAC12343F0004343EA0D
:1036C000505311F0004F23FA02F018BF40427047E8
:1036D0004FF00000704750EA013005D111F0004072
:1036E00008BF6FF0004070474FF00000704700BF08
:1036F0004A0011D212F5001211D20DD56FF4787371
:10370000B3EB62520ED44FEAC12343F0004343EAC5
:10371000505323FA02F070474FF00000704750EA10
:10372000013002D14FF0FF3070474FF0000070477A
:103730004FEA4102B2F1E04324BFB3F5001CDCF1D3
:10374000FE5C0DD901F0004C4FEAC0024CEA50700B
:10375000B2F1004F40EB830008BF20F0010070473A
:1037600011F0804F21D113F13872BCBF01F000403D
:10377000704741F480114FEA5252C2F11802C2F16F
:10378000200C10FA0CF320FA02F018BF40F00100F0
:103790004FEAC1234FEAD32303FA0CFC40EA0C00A2
:1037A00023FA02F34FEA4303CCE77FEA625307D1DF
:1037B00050EA01331EBF4FF0FE4040F44000704716
:1037C00001F0004040F0FE4040F40000704700BFB0
:1037D00080F0004002E000BF81F0004142001FBFC6
:1037E0005FEA410392EA030F7FEA226C7FEA236CCF
:1037F0006AD04FEA1262D2EB1363C1BFD2184140C4
:1038000048404140B8BF5B42192B88BF704710F059
:10381000004F40F4000020F07F4018BF404211F0FC
:10382000004F41F4000121F07F4118BF494292EA64
:10383000030F3FD0A2F1010241FA03FC10EB0C0090
:10384000C3F1200301FA03F100F0004302D549421D
:1038500060EB4000B0F5000F13D3B0F1807F06D3CA
:1038600040084FEA310102F10102FE2A51D2B1F1C2
:10387000004F40EBC25008BF20F0010040EA0300B7
:103880007047490040EB0000013A28BFB0F5000F37
:10389000EDD2B0FA80FCACF1080CB2EB0C0200FAED
:1038A0000CF0AABF00EBC25052421843BCBFD0403C
:1038B0001843704792F0000F81F4000106BF80F4B6
:1038C00000000132013BB5E74FEA41037FEA226C79
:1038D00018BF7FEA236C21D092EA030F04D092F044
:1038E000000F08BF0846704790EA010F1CBF002078
:1038F000704712F07F4F04D1400028BF40F00040D5
:10390000704712F100723CBF00F50000704700F0F4
:10391000004343F0FE4040F4000070477FEA22621B
:1039200016BF08467FEA23630146420206BF5FEAEC
:10393000412390EA010F40F4800070474FF00003EC
:1039400004E000BF10F0004348BF40425FEA000CB3
:1039500008BF704743F0964301464FF000001CE05B
:1039600050EA010208BF70474FF000030AE000BFB1
:1039700050EA010208BF704711F0004302D54042EF
:1039800061EB41015FEA010C02BF84460146002061
:1039900043F0B64308BFA3F18053A3F50003BCFA7C
:1039A0008CF2083AA3EBC25310DB01FA02FC634429
:1039B00000FA02FCC2F12002BCF1004F20FA02F230
:1039C00043EB020008BF20F00100704702F1200223
:1039D00001FA02FCC2F1200250EA4C0021FA02F284
:1039E00043EB020008BF20EADC7070477BB972B974
:1039F0000029BEBF00204FF0004106E008BF0028AC
:103A00001CBF6FF000414FF0FF3000F057B8ADF130
:103A1000080C6DE904CE002909DB002B1ADB0CF041
:103A20006BFADDF804E0DDE9022304B070474042A0
:103A300061EB4101002B1BDB0CF05EFADDF804E0CA
:103A4000DDE9022304B0404261EB4101524263EBE5
:103A500043037047524263EB43030CF04DFADDF829
:103A600004E0DDE9022304B0404261EB410170470C
:103A7000524263EB43030CF03FFADDF804E0DDE96A
:103A8000022304B0524263EB4303704753B94AB96F
:103A9000002908BF00281CBF4FF0FF314FF0FF3056
:103AA00000F00CB8ADF1080C6DE904CE0CF024FA6E
:103AB000DDF804E0DDE9022304B07047704700BF81
:103AC0000348044B834202D0034B03B118477047AD
:103AD000D0000020D0000020000000000548064B68
:103AE0001B1AD90F01EBA301491002D0034B03B1FC
:103AF00018477047D0000020D000002000000000D0
:103B000010B5064C237843B9FFF7DAFF044B13B125
:103B10000448AFF300800123237010BDF803002098
:103B2000000000001411010808B5054B1BB1054940
:103B30000548AFF30080BDE80840FFF7CFBF00BFE6
:103B400000000000FC0300201411010838B5002516
:103B50004FF0FF320121002009F016FE09F060FC51
:103B6000044601F077F82DB900F09EFF0128F8D146
:103B70000125EDE709F054FC001BB0F5487FF3D9AF
:103B800004480023038043808380C38000F0DAFB75
:103B9000EAE700BF08140020F0B583B009F040FC4C
:103BA00005460746064605E0831B052B15D8C31BB3
:103BB000022B1CD8134800F0C5FB09F031FC044669
:103BC000431B1E2BF0D90021009102230A460E4808
:103BD000006809F02FFE2546ECE700210091022342
:103BE0000A460A48006809F025FE2646E2E7002159
:103BF000009102230A460648006809F01BFE27468A
:103C0000D8E700BF081400201C040020180400207E
:103C10001404002008B54FF0FF320121002009F004
:103C2000B3FD08F095FCF6E708B54FF0FF3201212F
:103C3000002009F0A9FD08F01BFEF6E772B6FEE7CA
:103C400000B595B03022002108A80AF0D3FA00236D
:103C5000039304930593069307930093254A116CED
:103C600041F080511164116C01F080510091009974
:103C700001932149086840F440400860096801F454
:103C80004041019101990293536C43F48043536482
:103C9000536C03F480430293029B012308934FF477
:103CA0008033099302230E934FF480020F920C226B
:103CB00010926022119212930423139308A801F02A
:103CC00037FD98B90F230393022304930023059330
:103CD0004FF4805206920793032103A801F07EFF60
:103CE00030B901F021FF15B05DF804FBFFF7A6FF26
:103CF000FFF7A4FF003802400070004000B583B019
:103D0000002100912B4B1A6B42F400121A631A6BBC
:103D100002F400120092009A01911A6B42F48002A0
:103D20001A631B6B03F480030193019B01220221A0
:103D30000C2002F0A9FC0C2002F0B6FC01220221AA
:103D40000E2002F0A1FC0E2002F0AEFC01220221A6
:103D50000F2002F099FC0F2002F0A6FC01220221A4
:103D6000102002F091FC102002F09EFC01220221A2
:103D7000442002F089FC442002F096FC012202213A
:103D8000462002F081FC462002F08EFC0122022136
:103D90000B2002F079FC0B2002F086FC01220221AC
:103DA0002F2002F071FC2F2002F07EFC03B05DF8A2
:103DB00004FB00BF0038024070B58EB000240494AC
:103DC000059406940794089401941F4B1A6B42F0D3
:103DD00001021A631A6B02F001020192019A029425
:103DE0001A6B42F002021A631A6B02F0020202928C
:103DF000029A03941A6B42F004021A631B6B03F0DD
:103E000004030393039B4FF400530493012505958A
:103E10000226069604A90D4801F0D4FF2023099339
:103E20000A940B950C9604F1804404F5013409A919
:103E3000204601F0C7FF102309930A9509A92046DF
:103E400001F0C0FF0EB070BD003802400008024013
:103E500080B582B002F03CFCFFF7F2FEFFF7ACFF4A
:103E6000FFF74CFF00F09AFB00F0DEFB00F072FA67
:103E700000F0E0FF00F0CCFF00F000FF534AD2F862
:103E8000FC3043F08073C2F8FC30514B1A6842F0AA
:103E900001021A6000245C6008F090FE9FED4D8ADC
:103EA0009FED4D9ADFED4D8A4D4F4E4E4E4DF0EE4B
:103EB000482AB0EE492AF0EE681A97ED001AD6EDBE
:103EC000000A95ED000A494808F0A2FAF0EE482AE7
:103ED000B0EE492AF0EE681A97ED001AD6ED000A06
:103EE00095ED000A424808F093FA424F424E434D86
:103EF000F0EE482AB0EE492AF0EE681A97ED001A63
:103F0000D6ED000A95ED000A3D4808F081FADFED94
:103F10003D8AF0EE482AB0EE682AF3EE0E1A97EDCD
:103F2000001AD6ED000A95ED000A374808F070FA3D
:103F3000F0EE482AB0EE682AF3EE0E1A97ED001A5A
:103F4000D6ED000A95ED000A304808F061FAF0EE6F
:103F5000482AB0EE682AF3EE0E1A97ED001AD6ED55
:103F6000000A95ED000A2A4808F052FA294B0193FD
:103F70000423009323464FF400722749274809F091
:103F8000D4F9274B01930123009323464FF4007289
:103F90002449254809F0C9F9244B019302230093D1
:103FA00023464FF480722249224809F0BEF9224B81
:103FB00001930323009323464FF480721F49204846
:103FC00009F0B3F909F0E6F9FEE700BF00ED00E003
:103FD000001000E000008C436F12033B0000C84259
:103FE00008000020100000200C000020BC1300205E
:103FF0008013002024040020040000200000002082
:10400000441300200AD7A33B08130020CC12002041
:10401000901200201C040020301101084D3B0008C4
:104020002004002038110108993B000814040020E6
:1040300040110108293C0008180400205011010813
:10404000153C000808B50268034B9A4200D008BD31
:1040500002F058FBFBE700BF00480140FEE7FEE727
:10406000FEE7FEE7FEE7704708B5024802F0C0F938
:1040700008BD00BF0806002008B5024802F0B8F9E4
:1040800008BD00BF4805002008B5024802F0B0F99D
:1040900008BD00BFA805002008B5024802F0A8F935
:1040A00008BD00BF6806002008B5024802F0DAFD2E
:1040B00008BD00BF140A002008B5024802F098F9B4
:1040C00008BD00BFB409002008B5024802F090F90D
:1040D00008BD00BF5409002008B5024802F088F965
:1040E00008BD00BF3808002008B5024804F0E2FC13
:1040F00008BD00BFF808002008B5024804F0AAFD7A
:1041000008BD00BFF808002008B5024802F070F9A9
:1041100008BD00BF9808002008B5024801F040F82B
:1041200008BD00BF580A002010B50138012809D881
:1041300014464FF47A7392B2074802F070FC40B90B
:10414000204610BD0AF05EF8092303604FF0FF30EF
:10415000F7E70020F5E700BF140A002010B4094873
:104160000268072191621423D362C360064C206861
:104170008162C362E3608162C3629162D3625DF86F
:10418000044B7047C806002010070020836B5A6A52
:10419000824209D09A6A82420CD0DA6A82420FD0F7
:1041A0001A6B824212D070471A68D36823F40073E6
:1041B000D36070471A68D36823F48063D360704774
:1041C0001A68D36823F40063D36070471A68D36811
:1041D00023F48053D360E6E7054A116B054BCB63AC
:1041E0000549C86AC363496ACB63926AD36370475F
:1041F000C80600208D41000810070020420092B23E
:1042000011460023184602E0484009090133022BF9
:10421000FADD120192B200F00F001043704710B5A2
:1042200004460846FFF7EAFF002305E00E2244F8A3
:104230002320400080B201330F2B04DC10F4004F28
:10424000F4D10722F3E700232364636410BD000068
:1042500010B5044601880848FFF7E1FF6188074868
:10426000FFF7DDFFA1880648FFF7D9FFE188054881
:10427000FFF7D5FF10BD00BF00050020B8040020E7
:1042800070040020280400200A4B1B68DA6842F4FE
:104290008052DA60084A1268D16841F40061D16046
:1042A000D16841F40071D160DA6842F48062DA606A
:1042B00001207047C80600201007002038B50F4CB9
:1042C0002268122340320E49206B01F0FFFF0D4D92
:1042D0002A6812233C320C49E86A01F0F7FF2A6889
:1042E000122334320949686A01F0F0FF2268122370
:1042F00038320749A06A01F0E9FF38BDC80600203E
:104300000005002010070020B804002070040020E1
:104310002804002038B5094C0C21204601F050F942
:10432000074D0821284601F04BF90021284601F0ED
:1043300047F90421204601F043F938BDC8060020A2
:104340001007002008B5FFF783FFFFF7B7FFFFF75F
:104350009BFF08BD08B5FFF701FFFFF73DFFFFF723
:10436000D9FF08BD10B582B004460368B3F1804F91
:1043700004D05B4A934259D002B010BD0023009391
:10438000584A116C41F001011164126C02F00102F3
:104390000092009A5448554A02604FF0C062426051
:1043A00040228260C3604FF4806202614FF4805209
:1043B00042614FF480428261C3614FF40032026275
:1043C000042242628362C362036301F0E7FE38BBEA
:1043D000454B63629C634648464B03604FF0C063A5
:1043E0004360402383600023C3604FF48062026116
:1043F0004FF4805242614FF480428261C3614FF4B6
:1044000000320262042242628362C362036301F0EB
:10441000C5FE40B9364BE3629C6323629C63ABE705
:10442000FFF70CFCD4E7FFF709FCF3E70023019347
:1044300002F50B32116C41F008011164126C02F0AC
:1044400008020192019A2C482C4A02604FF0406207
:10445000426040228260C3604FF4806202614FF488
:10446000805242614FF480428261C3614FF4003256
:104470000262042242628362C362036301F08EFE21
:1044800038BB1D4BA3629C631D481E4B03604FF05D
:1044900040634360402383600023C3604FF4806225
:1044A00002614FF4805242614FF480428261C361E5
:1044B0004FF400320262042242628362C3620363E9
:1044C00001F06CFE40B90E4B23639C63A3639C63B5
:1044D00052E7FFF7B3FBD4E7FFF7B0FBF3E700BF0A
:1044E000000C00400038024068060020886002404E
:1044F0000806002028600240A805002070600240E5
:10450000480500205860024000B589B0002303939D
:1045100004930593069307930368B3F1804F05D086
:104520001B4A93421BD009B05DF804FB00230193A2
:10453000184B1A6B42F001021A631B6B03F0010364
:104540000193019B05230393022304930323069302
:104550000123079303A9104801F034FCE3E700238B
:1045600002930C4B1A6B42F001021A631B6B03F0AF
:1045700001030293029B0A23039302230493032261
:104580000692079303A9044801F01CFCCBE700BF87
:10459000000C0040003802400000024000B58BB023
:1045A00000230893099301930293039304930593C3
:1045B000069307931B484FF080420260436083607C
:1045C000C3600361836100F023FFF0B90023089307
:1045D000099308A9134801F06BF8C8B96023019347
:1045E000002202920392059201A90E4800F06AFF90
:1045F00088B9082201A90B4800F064FF70B9094886
:10460000FFF782FF0BB05DF804FBFFF717FBDDE758
:10461000FFF714FBE2E7FFF711FBEAE7FFF70EFBFA
:10462000EDE700BF1007002000B58BB00023089312
:1046300009930193029303930493059306930793BD
:104640001B481C4A026043608360C360036183614E
:1046500000F0DEFE00BB00230893099308A914486C
:1046600001F026F8D8B96023019300230293039345
:10467000059304220DEB02010D4800F023FF88B9D9
:104680000C2201A90A4800F01DFF70B90848FFF785
:104690003BFF0BB05DF804FBFFF7D0FADBE7FFF759
:1046A000CDFAE0E7FFF7CAFAEAE7FFF7C7FAEDE766
:1046B000C8060020000C00400D4B1B89AC3B40F2AB
:1046C000CF7202FB03F30B4981FB0321DA17C2EB24
:1046D000E11209498B4209DB303240F2FF739A4202
:1046E000A8BF1A4693B2054A138070473023FAE7F1
:1046F000700700202D20FE139AF9FFFF68070020A5
:10470000A24B5B69B3F5787F00F2AA809F4B93EDD3
:10471000037AB8EE477ADFED9E7A37EE677ADFEDFF
:104720009D7A27EE277ADFED9C6AC7EE267A9FED09
:104730009B7A77EEC77A9FED9A7AF4EEC77AF1EE1C
:1047400010FA09D49FED957AF4EEC77AF1EE10FADB
:1047500004DDF0EE477A01E0DFED917AFDEEE77AD5
:10476000F8EEE77A8F4BC3ED017A884BD3ED006A00
:10477000F8EE666A9FED867A76EEC76A9FED8A7AD2
:1047800066EE876A9FED846A86EE867ADFED876A39
:1047900037EE667ADFED866AB4EEE67AF1EE10FA6D
:1047A00009D4DFED826AB4EEE67AF1EE10FA04DDA8
:1047B000B0EE667A01E09FED7E7ABDEEC77AB8EE84
:1047C000C77A784B83ED027A704BD3ED016AF8EE2D
:1047D000666A9FED6F7A76EEC76A9FED737A66EE32
:1047E000876A9FED6D6A86EE867ADFED706A37EE36
:1047F000667ADFED6F6AB4EEE67AF1EE10FA09D46C
:10480000DFED6A6AB4EEE67AF1EE10FA04DDB0EE9E
:10481000667A01E09FED667ABDEEC77AB8EEC77A98
:10482000604B83ED007AB1EE477A83ED007AF1EECA
:10483000677AC3ED017A5B4BD3ED007AF5EE407AEF
:10484000F1EE10FA01D100221A60564BD3ED017A35
:10485000F5EE407AF1EE10FA01D100225A6070476D
:104860004A4B93ED037AB8EE477ADFED497A37EE9B
:10487000677ADFED487A27EE277ADFED476AC7EEE1
:10488000267A9FED467A77EEC77A9FED457AF4EE69
:10489000C77AF1EE10FA09D49FED407AF4EEC77AA8
:1048A000F1EE10FA04DDF0EE477A01E0DFED3C7A3C
:1048B000FDEEE77AF8EEE77A3A4BC3ED017A334B37
:1048C000D3ED006AF8EE666A9FED317A76EEC76A3C
:1048D0009FED307A66EE876A9FED2F6A86EE867AC4
:1048E000DFED2E6A37EE667ADFED2D6AB4EEE67AFA
:1048F000F1EE10FA09D4DFED296AB4EEE67AF1EEB2
:1049000010FA04DDB0EE667A01E09FED257ABDEE87
:10491000C77AB8EEC77A234B83ED027A1B4BD3EDEF
:10492000016AF8EE666A9FED1A7A76EEC76A9FED25
:10493000197A66EE876A9FED186A86EE867ADFED51
:10494000176A37EE667ADFED166AB4EEE67AF1EEB4
:1049500010FA09D4DFED116AB4EEE67AF1EE10FA3E
:1049600004DDB0EE667A01E09FED0D7ABDEEC77A08
:10497000B8EEC77A0B4B83ED007AB1EE477A83ED40
:10498000007AF1EE677AC3ED017A54E770070020F0
:1049900000002C4300002A4300E0CC440000AA425F
:1049A0000000AAC25C0700200000B44200003442AC
:1049B000000034C210B5D522094B9978002000F0D0
:1049C000CBFA002406E0064B2344D522D97800F028
:1049D000C3FA0134024B5B78023BA342F3DC10BD07
:1049E000F407002038B5284B5A68284B1B68284923
:1049F000A1FB03139B0CB2FBF3F2264B1B68D31AEB
:104A000040F2D6618B4202DD234B00211970224B0C
:104A10001B780BB91F490A60022B10D91F4A547822
:104A20000234402CA8BF4024A34207DA5A1CD2B259
:104A300019490A701949C854A24202DA38BD05243E
:104A4000F2E7154B00221A70FFF7B4FF013C134B3D
:104A50001B5D8342F2D1114B9B78163B012BEDD8A5
:104A60000E4B1B78C82BE9D10D4B01221A700D4C4F
:104A70000A4D0FCD0FC40FCD0FC40FCD0FC495E855
:104A80000F0084E80F00D9E7001000E01C000020B0
:104A900083DE1B43B007002058070020F4070020E6
:104AA00034080020B40700202DE9F843634B1B783D
:104AB00013B90020BDE8F883604B00221A70604BE8
:104AC0009B78162B15D05E4BDB7803F01F07C3F3E2
:104AD0004113022B7ED0032B00F08580002B63D086
:104AE000584B4FF07C521A6040F2FF784FF00B0C9D
:104AF00062E0544B544A1A60514BD9781A7902F04B
:104B0000070241EA0221514A11609988C1F3CA01A2
:104B100051605968C1F38A319160D879197A01F0EE
:104B20000F01C90141EA5001D1601989C1F30A118D
:104B300011619968C1F3CA315161D87A197B01F0CA
:104B40001F01890141EA900191619989C1F34A11DC
:104B5000D161D989C1F30A011162D87B197C01F0B6
:104B60003F01490141EAD00151621969C1F38A113B
:104B70009162598AC1F34A01D162D87C197D01F052
:104B80007F01090141EA101111635969C1F3CA118A
:104B90005163D98AC1F38A019163D97D1B7EDB0001
:104BA00043EA5113D36342E0264B4FF07E521A6022
:104BB00040F2FF384FF00A0C214B5D78033DED00C9
:104BC000664695FBFCF5EDB24FF0000E704673465D
:104BD00001222AE01B4B4FF07A521A6040F6FF7810
:104BE0004FF00C0CE8E7174B4FF078521A6041F683
:104BF000FF784FF00D0CDFE7511C154CA25C9A407A
:104C000010430833DBB2CAB29C45F5D807EB0E045B
:104C100008EA00090D4941F82490F040A3EB0C0389
:104C2000DBB20EF1010E5FFA8EFEAE45ECD3FFF75C
:104C300043FDFFF765FD01203CE700BF340800207D
:104C4000B40700206C0700205D1D9C3F700700200A
:104C5000B707002008B501220249034802F0ECF929
:104C600008BD00BF6A070020140A002008B5024BE7
:104C70001878FFF7B7FE08BD6A07002008B50B4893
:104C80000B4B03600B4B436000238360C3604FF406
:104C90008042026143618361C361036202F0ACFD43
:104CA00000B908BDFEF7CAFFFBE700BFF808002007
:104CB000005400403057050070B588B000230393BE
:104CC00004930593069307930268364B9A4201D0EA
:104CD00008B070BD044600250195334E336B43F098
:104CE00002033363336B03F002030193019BC02380
:104CF000039312230493032306930423079303A926
:104D00002A4801F05FF80295336C43F400133364D2
:104D1000336C03F400130293029B2548254B036078
:104D20004FF00073436040238360C5604FF480639D
:104D3000036145618561C5610562456201F02EFA36
:104D400050BB1B4B63639C631B481C4B03604FF0C1
:104D50000073436000238360C3604FF4806202618C
:104D600043618361C3610362436201F017FAB0B922
:104D7000114BA3639C63012202211F2001F084FCDC
:104D80001F2001F091FC01220221202001F07CFC77
:104D9000202001F089FC9BE7FEF750FFD1E7FEF7EA
:104DA0004DFFE5E700540040003802400004024097
:104DB00098080020B86002403808002010600240C7
:104DC00038B502680F4B9A4200D038BD04460E4AEF
:104DD000136C23F4001313640C4D4021284601F09A
:104DE000D5F88021284601F0D1F8606B01F03CFA3B
:104DF000A06B01F039FA1F2001F064FC202001F0C3
:104E000061FCE2E700540040003802400004024028
:104E100008B500F08FFE044B1860044BA3FB003074
:104E2000800C034B186008BD5009002083DE1B4333
:104E30004C09002008B50848084B0360084B436044
:104E400000238360C360036183610C224261C361FC
:104E500001F0B6FD08BD00BF140A0020001001409B
:104E6000A068060030B589B000230393049305932E
:104E700006930793026803F1804303F588339A424F
:104E800001D009B030BD04460025019503F59433E7
:104E90005A6C42F010025A645A6C02F010020192ED
:104EA000019A02951A6B42F001021A631B6B03F020
:104EB00001030293029B4FF4C06303930223049304
:104EC00001230593032306930723079303A91D4892
:104ED00000F078FF1C481D4B03604FF000634360F7
:104EE0008560C560056145618561C5614FF48033AA
:104EF0000362456201F052F9E8B9134BA3639C6366
:104F00001348144B03604FF00063436040238360F9
:104F10000023C3604FF48062026143618361C36117
:104F20004FF480320262436201F038F930B9084B25
:104F300063639C63A5E7FEF781FEDEE7FEF77EFE76
:104F4000F5E700BF00000240B40900208864024079
:104F500054090020B86402404840002302E04000A9
:104F6000C0B20133072B06DC10F0800FF7D082EAC5
:104F70004000C0B2F5E7704730B589B0054600245F
:104F800001941D4B5A6C42F480225A645B6C03F40A
:104F900080230193019B02A903A800F0F5FE00F015
:104FA000E3FE164AA2FB00239B0C013B1448154A62
:104FB000026040F2E732C260436004618460846151
:104FC00000F0FAF9044610B1204609B030BD0C4893
:104FD00000F0A6F804460028F6D11A2001F064FB80
:104FE0000F2D01D90124EFE7002229461A2001F0F4
:104FF0004BFB054B1D60E7E70038024083DE1B4397
:10500000580A00200048014018000020034B0360AC
:10501000034B0B6080231360704700BFA00C00207F
:10502000A00A002030B4036A23F001030362026A7D
:105030004568836923F073030C681C4322F0020265
:105040008B6813430B4A904206D0456084614A68DE
:105050004263036230BC704723F00803CA681A43F6
:1050600022F0040325F440754A692A438D691543EB
:10507000EBE700BF0000014030B4036A23F4807303
:105080000362036A4468C26922F073020D68154323
:1050900023F400738A6843EA02230D4A904206D043
:1050A0004460C5614A68C263036230BC704723F440
:1050B0000063CA6843EA022323F4806324F4405463
:1050C0004A6944EA02148A6944EA0214E8E700BF24
:1050D0000000014030B4036A23F480530362036A82
:1050E0004468C26922F4E6420D6842EA052223F4CC
:1050F00000538D6843EA0533074DA84206D044604B
:10510000C2614A680264036230BC704724F4804480
:105110004D6944EA8514F2E7000001407047000041
:1051200090F83D30DBB2012B2FD1022380F83D30C7
:105130000268D36843F00103D3600368154A9342C1
:1051400018D0B3F1804F15D0A2F57C42934211D014
:1051500002F5806293420DD002F58062934209D03D
:1051600002F59A32934205D01A6842F001021A60A1
:10517000002070479A6802F00702062A07D01A68D2
:1051800042F001021A6000207047012070470020A1
:10519000704700BF0000014070477047704770477C
:1051A00010B5044603681A6912F0020F11D0DA68CC
:1051B00012F0020F0DD06FF002021A610123037783
:1051C00003689B6913F0030F70D0FFF7E6FF00231D
:1051D000237723681A6912F0040F12D0DA6812F0EC
:1051E000040F0ED06FF004021A61022323772368A4
:1051F0009B6913F4407F5FD02046FFF7CEFF00236A
:10520000237723681A6912F0080F12D0DA6812F0B7
:10521000080F0ED06FF008021A6104232377236869
:10522000DB6913F0030F4ED02046FFF7B6FF0023D3
:10523000237723681A6912F0100F12D0DA6812F07F
:10524000100F0ED06FF010021A6108232377236825
:10525000DB6913F4407F3DD02046FFF79EFF00231B
:10526000237723681A6912F0010F03D0DA6812F06D
:10527000010F36D123681A6912F0800F03D0DA6863
:1052800012F0800F34D123681A6912F0400F03D056
:10529000DA6812F0400F32D123681A6912F0200F39
:1052A00003D0DA6812F0200F30D110BDFFF774FF81
:1052B0002046FFF773FF8AE72046FFF76DFF204681
:1052C000FFF76CFF9BE72046FFF766FF2046FFF7DE
:1052D00065FFACE72046FFF75FFF2046FFF75EFF64
:1052E000BDE76FF001021A612046FEF7ABFEC1E791
:1052F0006FF080021A61204600F019FAC3E76FF0E0
:1053000040021A612046FFF74AFFC5E76FF020020E
:105310001A61204600F00AFAC7E700000368254A30
:1053200090420ED0B0F1804F0BD0A2F57C4290425B
:1053300007D002F58062904203D002F5806290426D
:1053400003D123F070034A6813431A4A90421AD0DB
:10535000B0F1804F17D0A2F57C42904213D002F5F5
:10536000806290420FD002F5806290420BD002F52D
:105370009A32904207D002F58062904203D002F543
:105380008062904203D123F44073CA68134323F030
:1053900080034A69134303608B68C3620B688362AE
:1053A000044B984202D00123436170470B690363A9
:1053B000F9E700BF0000014040B310B5044690F883
:1053C0003D30F3B1022384F83D30214651F8040BFF
:1053D000FFF7A4FF012384F8463084F83E3084F8B8
:1053E0003F3084F8403084F8413084F8423084F80B
:1053F000433084F8443084F8453084F83D30002050
:1054000010BD80F83C30FFF789FEDBE701207047D4
:1054100040B310B5044690F83D30F3B1022384F850
:105420003D30214651F8040BFFF778FF012384F843
:10543000463084F83E3084F83F3084F8403084F8B9
:10544000413084F8423084F8433084F8443084F8A2
:10545000453084F83D30002010BD80F83C30FEF728
:1054600081FFDBE70120704730B4036A23F01003AB
:105470000362036A4468826922F4E6420D6842EAE4
:10548000052223F020038D6843EA05130C4DA84242
:1054900006D0446082614A688263036230BC704710
:1054A00023F08003CD6843EA051323F0400324F47E
:1054B00040644D6944EA85048D6944EA8504E8E75F
:1054C0000000014038B590F83C30012B66D004460E
:1054D0000D46012380F83C300C2A5AD8DFE802F050
:1054E000075959591B59595930595959440000689D
:1054F000FFF798FD2268936943F0080393612268DF
:10550000936923F0040393612268936929690B432B
:10551000936100203EE00068FFF7A6FF22689369D0
:1055200043F4006393612268936923F48063936179
:1055300022689369296943EA01239361002029E0E5
:105540000068FFF799FD2268D36943F00803D3612F
:105550002268D36923F00403D3612268D3692969DF
:105560000B43D361002015E00068FFF7B3FD22680C
:10557000D36943F40063D3612268D36923F4806361
:10558000D3612268D369296943EA0123D3610020EA
:1055900000E00120002384F83C3038BD0220FCE705
:1055A00001F01F014FF0010C0CFA01FC036A23EA21
:1055B0000C030362036A8A401343036270470000CE
:1055C00010B504460846002932D194F83E30DBB2CB
:1055D000013B18BF0123002B63D1002841D10223D6
:1055E00084F83E30012201462068FFF7D9FF236886
:1055F0002E4A934245D023682C4A934246D0B3F1B9
:10560000804F43D0A2F57C4293423FD002F58062A6
:1056100093423BD002F58062934237D002F59A3232
:10562000934233D01A6842F001021A60002037E03A
:10563000042908D008290DD094F84130DBB2013B91
:1056400018BF0123C7E794F83F30DBB2013B18BF16
:105650000123C0E794F84030DBB2013B18BF0123BF
:10566000B9E7042805D0082807D0022384F8413080
:10567000B8E7022384F83F30B4E7022384F84030CF
:10568000B0E75A6C42F400425A64B4E79A6802F0F8
:105690000702062A07D01A6842F001021A600020A9
:1056A00010BD0120FCE70020FAE700BF0000014028
:1056B00090F83C20012A35D010B40346012280F82E
:1056C0003C20022280F83D2002685068946820F057
:1056D000700C086840EA0C0050601A681248824258
:1056E00012D0B2F1804F0FD0A0F57C4082420BD097
:1056F00000F58060824207D000F58060824203D0CE
:1057000000F59A30824204D124F080044968214394
:105710009160012283F83D20002083F83C005DF871
:10572000044B7047022070470000014070477047EB
:10573000002800F0E08170B582B00446036813F0E1
:10574000010F3BD09F4B9B6803F00C03042B2CD024
:105750009C4B9B6803F00C03082B21D06368B3F5C6
:10576000803F4FD0B3F5A02F52D0964B1A6822F449
:1057700080321A601A6822F480221A606368002B53
:1057800050D000F0CBFF05468E4B1B6813F4003F52
:1057900014D100F0C3FF401B6428F5D90320B1E108
:1057A000884B5B6813F4800FD8D0864B1B6813F4CA
:1057B000003F03D06368002B00F09F81236813F043
:1057C000020F54D07F4B9B6813F00C0F3ED07D4BE3
:1057D0009B6803F00C03082B33D0E368002B68D0E0
:1057E000794B01221A6000F099FF0546754B1B6842
:1057F00013F0020F54D100F091FF401B0228F5D99D
:1058000003207FE16F4A136843F480331360B5E7E8
:105810006C4B1A6842F480221A601A6842F4803293
:105820001A60ABE700F07AFF0546664B1B6813F47D
:10583000003FC3D000F072FF401B6428F5D903205D
:1058400060E1604B5B6813F4800FC6D15D4B1B6851
:1058500013F0020F03D0E368012B40F05081594A46
:10586000136823F0F803216943EAC1031360236836
:1058700013F0080F42D063696BB3534B0122C3F896
:10588000802E00F04BFF05464E4B5B6F13F0020F6E
:1058900034D100F043FF401B0228F5D9032031E149
:1058A000484A136823F0F803216943EAC1031360EF
:1058B000DDE7454B00221A6000F030FF0546414B02
:1058C0001B6813F0020FD2D000F028FF401B022803
:1058D000F5D9032016E13C4B0022C3F8802E00F0DE
:1058E0001DFF0546374B5B6F13F0020F06D000F02B
:1058F00015FF401B0228F5D9032003E1236813F0AC
:10590000040F77D02F4B1B6C13F0805F33D1002333
:1059100001932C4B1A6C42F080521A641B6C03F0FA
:1059200080530193019B0125284B1B6813F4807F52
:1059300023D0A368012B34D0052B38D0214B1A6F0C
:1059400022F001021A671A6F22F004021A67A36894
:10595000002B3DD000F0E2FE06461A4B1B6F13F001
:10596000020F46D100F0DAFE801B41F288339842E4
:10597000F3D90320C6E00025D6E7144A136843F4A0
:105980008073136000F0CAFE0646104B1B6813F4C8
:10599000807FCED100F0C2FE801B0228F5D9032003
:1059A000B0E0084A136F43F001031367CFE7054BDC
:1059B0001A6F42F004021A671A6F42F001021A6766
:1059C000C5E700BF003802400000474200700040B9
:1059D00000F0A4FE0646524B1B6F13F0020F08D0D6
:1059E00000F09CFE801B41F288339842F3D90320DB
:1059F00088E0EDB9A369002B00F08380484A9268E3
:105A000002F00C02082A51D0022B17D0454B00227D
:105A10001A6600F083FE0446414B1B6813F0007FBA
:105A200042D000F07BFE001B0228F5D9032069E07C
:105A30003B4A136C23F080531364DBE7394B00229D
:105A40001A6600F06BFE0546354B1B6813F0007FAD
:105A500006D000F063FE401B0228F5D9032051E078
:105A6000E369226A1343626A43EA8213A26A520814
:105A7000013A43EA0243E26A43EA0263284A536076
:105A8000284B01221A6600F049FE0446244B1B688D
:105A900013F0007F06D100F041FE001B0228F5D96B
:105AA00003202FE000202DE000202BE0012B2BD045
:105AB0001B4B5B6803F48001E269914226D103F03D
:105AC0003F02216A8A4223D1616A47F6C0721A40B6
:105AD000B2EB811F1ED103F44031A26A5208013A91
